{
    "_format": "hh-sol-artifact-1",
    "contractName": "AIProxyNumber",
    "sourceName": "contracts/AIProxyNumber.sol",
    "abi": [
        {
            "inputs": [],
            "stateMutability": "nonpayable",
            "type": "constructor"
        },
        {
            "anonymous": false,
            "inputs": [
                {
                    "indexed": true,
                    "internalType": "address",
                    "name": "user",
                    "type": "address"
                },
                {
                    "indexed": false,
                    "internalType": "uint256",
                    "name": "amount",
                    "type": "uint256"
                }
            ],
            "name": "ProxyPurchased",
            "type": "event"
        },
        {
            "stateMutability": "payable",
            "type": "fallback"
        },
        {
            "inputs": [
                {
                    "internalType": "address",
                    "name": "",
                    "type": "address"
                }
            ],
            "name": "hasAccess",
            "outputs": [
                {
                    "internalType": "bool",
                    "name": "",
                    "type": "bool"
                }
            ],
            "stateMutability": "view",
            "type": "function"
        },
        {
            "inputs": [],
            "name": "owner",
            "outputs": [
                {
                    "internalType": "address",
                    "name": "",
                    "type": "address"
                }
            ],
            "stateMutability": "view",
            "type": "function"
        },
        {
            "inputs": [],
            "name": "price",
            "outputs": [
                {
                    "internalType": "uint256",
                    "name": "",
                    "type": "uint256"
                }
            ],
            "stateMutability": "view",
            "type": "function"
        },
        {
            "inputs": [],
            "name": "purchaseProxyNumber",
            "outputs": [],
            "stateMutability": "payable",
            "type": "function"
        },
        {
            "inputs": [],
            "name": "withdraw",
            "outputs": [],
            "stateMutability": "nonpayable",
            "type": "function"
        },
        {
            "stateMutability": "payable",
            "type": "receive"
        }
    ],
    "bytecode": "0x608060405268015af1d78b58c40000600155348015601c57600080fd5b50336000806101000a81548173ffffffffffffffffffffffffffffffffffffffff021916908373ffffffffffffffffffffffffffffffffffffffff1602179055506107e08061006c6000396000f3fe60806040526004361061004e5760003560e01c80633ccfd60b14610136578063735227c51461014d5780638da5cb5b1461015757806395a078e814610182578063a035b1fe146101bf576100fb565b366100fb576001600260003373ffffffffffffffffffffffffffffffffffffffff1673ffffffffffffffffffffffffffffffffffffffff16815260200190815260200160002060006101000a81548160ff0219169083151502179055503373ffffffffffffffffffffffffffffffffffffffff167fb7dacd7427d23605a9882564d889f73c4b58684e1f5029ee7bae9d36db6bc193346040516100f19190610498565b60405180910390a2005b6040517f08c379a000000000000000000000000000000000000000000000000000000000815260040161012d90610510565b60405180910390fd5b34801561014257600080fd5b5061014b6101ea565b005b610155610348565b005b34801561016357600080fd5b5061016c610435565b6040516101799190610571565b60405180910390f35b34801561018e57600080fd5b506101a960048036038101906101a491906105bd565b610459565b6040516101b69190610605565b60405180910390f35b3480156101cb57600080fd5b506101d4610479565b6040516101e19190610498565b60405180910390f35b60008054906101000a900473ffffffffffffffffffffffffffffffffffffffff1673ffffffffffffffffffffffffffffffffffffffff163373ffffffffffffffffffffffffffffffffffffffff1614610278576040517f08c379a000000000000000000000000000000000000000000000000000000000815260040161026f9061066c565b60405180910390fd5b60008060009054906101000a900473ffffffffffffffffffffffffffffffffffffffff1673ffffffffffffffffffffffffffffffffffffffff16476040516102bf906106bd565b60006040518083038185875af1925050503d80600081146102fc576040519150601f19603f3d011682016040523d82523d6000602084013e610301565b606091505b5050905080610345576040517f08c379a000000000000000000000000000000000000000000000000000000000815260040161033c9061071e565b60405180910390fd5b50565b60015434101561038d576040517f08c379a00000000000000000000000000000000000000000000000000000000081526004016103849061078a565b60405180910390fd5b6001600260003373ffffffffffffffffffffffffffffffffffffffff1673ffffffffffffffffffffffffffffffffffffffff16815260200190815260200160002060006101000a81548160ff0219169083151502179055503373ffffffffffffffffffffffffffffffffffffffff167fb7dacd7427d23605a9882564d889f73c4b58684e1f5029ee7bae9d36db6bc1933460405161042b9190610498565b60405180910390a2565b60008054906101000a900473ffffffffffffffffffffffffffffffffffffffff1681565b60026020528060005260406000206000915054906101000a900460ff1681565b60015481565b6000819050919050565b6104928161047f565b82525050565b60006020820190506104ad6000830184610489565b92915050565b600082825260208201905092915050565b7f496e76616c69642063616c6c0000000000000000000000000000000000000000600082015250565b60006104fa600c836104b3565b9150610505826104c4565b602082019050919050565b60006020820190508181036000830152610529816104ed565b9050919050565b600073ffffffffffffffffffffffffffffffffffffffff82169050919050565b600061055b82610530565b9050919050565b61056b81610550565b82525050565b60006020820190506105866000830184610562565b92915050565b600080fd5b61059a81610550565b81146105a557600080fd5b50565b6000813590506105b781610591565b92915050565b6000602082840312156105d3576105d261058c565b5b60006105e1848285016105a8565b91505092915050565b60008115159050919050565b6105ff816105ea565b82525050565b600060208201905061061a60008301846105f6565b92915050565b7f4f6e6c79206f776e65722063616e207769746864726177000000000000000000600082015250565b60006106566017836104b3565b915061066182610620565b602082019050919050565b6000602082019050818103600083015261068581610649565b9050919050565b600081905092915050565b50565b60006106a760008361068c565b91506106b282610697565b600082019050919050565b60006106c88261069a565b9150819050919050565b7f5769746864726177616c206661696c6564000000000000000000000000000000600082015250565b60006107086011836104b3565b9150610713826106d2565b602082019050919050565b60006020820190508181036000830152610737816106fb565b9050919050565b7f5061796d656e7420726571756972656400000000000000000000000000000000600082015250565b60006107746010836104b3565b915061077f8261073e565b602082019050919050565b600060208201905081810360008301526107a381610767565b905091905056fea264697066735822122089e46a7d77372d52fff20d4f520bf898045a85d96a7e1c5661671b9b5548ab4c64736f6c634300081c0033",
    "linkReferences": {},
    "deployedLinkReferences": {}
}